:020000040800F2
:10000000802D002041020008EB150008291500088A
:10001000E9150008BB070008491D000800000000A2
:100020000000000000000000000000009D19000812
:10003000BD07000800000000ED1500089F1900082A
:100040005B0200085B0200085B0200085B0200081C
:100050005B0200085B0200085B0200085B0200080C
:100060005B0200085B0200085B0200085B020008FC
:100070005B0200085B0200085B0200085B020008EC
:100080005B0200085B0200085B0200080000000041
:100090000000000000000000000000005B020008FB
:1000A0005B0200085B0200085B0200085B020008BC
:1000B0005B0200085B0200085B0200085B020008AC
:1000C0005B0200085B0200085B0200085B0200089C
:1000D0005B0200085B0200085B02000800000000F1
:1000E0005B0200085B0200085B02000800000000E1
:1000F0000000000000000000000000005B0200089B
:10010000000000005B0200085B0200085B020008C0
:1001100000000000000000000000000000000000DF
:100120005B0200085B0200085B0200085B0200083B
:100130005B0200080000000000000000000000005A
:100140000000000000000000000000005B0200084A
:100150005B0200085B0200085B0200085B0200080B
:100160005B0200085B0200080000000000000000C5
:10017000000000000000000000000000000000007F
:10018000000000005B02000800000000000000000A
:100190005B0200085B02000800F002F800F041F882
:1001A0000AA090E8000C82448344AAF10107DA45D2
:1001B00001D100F036F8AFF2090EBAE80F0013F0E3
:1001C000010F18BFFB1A43F0010318470835000060
:1001D00028350000103A24BF78C878C1FAD85207F1
:1001E00024BF30C830C144BF04680C6070470000B1
:1001F0000023002400250026103A28BF78C1FBD830
:10020000520728BF30C148BF0B607047782900F003
:10021000EB80002070471FB503F002F81FBD10B53A
:1002200010BD00F090FA1146FFF7F5FF02F074FDE3
:1002300000F0AEFA03B4FFF7F2FF03BC00F0B6FA29
:100240000948804709480047FEE7FEE7FEE7FEE76A
:10025000FEE7FEE7FEE7FEE7FEE7FEE704480549A6
:10026000054A064B70470000391A0008990100083A
:1002700080270020802D0020802900208029002058
:1002800053EA020C00F069802DE9F04B4FF00006B4
:10029000002B1FBFB3FA83F503FA05F424FA05F621
:1002A0005E4012BF1643B2FA82F502FA05F4C5F1B8
:1002B00020051EBF22FA05FC44EA0C04203556EA4C
:1002C000044C4FEA144418BF641C4FF000084FF070
:1002D0000009904271EB030C39D3002919BFB1FA20
:1002E00081F701FA07F6B0FA80F700FA07F6C7F1CE
:1002F00020071EBF20FA07FC46EA0C062037B6FB93
:10030000F4FCA7EB0507103F07F01F0BCBF120060D
:100310000CFA0BFB2CFA06F644BFB3460026202F3E
:10032000A4BF5E464FF0000B5BEA060C08BF4FF01F
:10033000010B19EB0B09ABFB027C48EB0608C01B59
:1003400006FB02CC0BFB03CC71EB0C01C1E70B46A7
:10035000024641464846BDE8F08B13B54FF0000019
:100360004FF00001AFF30080BDE81C407047000073
:100370000FB41CB5074B06AA7B446946009005984C
:1003800000F0C9F90020694600F0D8F91CBC5DF8FE
:1003900014FB0000C103000070B5044685690068C5
:1003A000C10601D5302600E02026C00707D070BD69
:1003B000D4E9012130469047206A401C20626D1E1E
:1003C000F6D570BD70B5044685690078C00707D1C1
:1003D00070BDD4E9012120209047206A401C206292
:1003E0006D1EF6D570BD000070B504460D46214661
:1003F0001068AFF300802188090502D50F4A7A44BE
:1004000002E00E4A7A440E32002104F1240305E092
:1004100000F00F060009965D5E54491C0028F7D1D4
:1004200020780023000704D5702D02D009B10223E3
:1004300011322046BDE8704000F00FB9983200003C
:100440002DE9F05F894604464FF0000ADFF874B1E9
:10045000FB44C0F820A02046E1688847002874D0FB
:10046000252806D0D4E901219047206A401C20624B
:10047000F1E700265F462046E168884720280546C8
:1004800007DB312D05D2781910F8200C08B106438E
:10049000F1E7B00701D526F00406C4F81CA0002738
:1004A000C4F818A02A2D09D0284601F05EFC38B304
:1004B00004EB8708303DC8F8185019E059F8041BC0
:1004C000204604EB87029161E1688847012F0546C9
:1004D00018D1E069002820DA26F020061DE0D8F8BF
:1004E000180000EB800005EB40003038C8F8180019
:1004F0002046E1688847054601F037FC0028EED128
:10050000012F0AD02E2D08D12046E16888477F1C94
:100510000546022F46F02006C4DBA069002803DA56
:10052000404246F00106A061F00701D026F0100617
:100530006C2D0BD0682D09D04C2D39D06A2D35D0BB
:10054000742D35D07A2D33D016E038E0E1682F468F
:1005500020468847B842054609D16C2F26D04FF473
:100560008060E168064320468847054604E06C2F1A
:100570001AD04FF4807006430DB3A5F1410019283D
:1005800002D8203546F400664A46294620462660B1
:100590004E46FFF73BFE80B101280BD0F61D26F03A
:1005A000070000F1080956E74020E4E78020D8E77B
:1005B0000020D6E706F104094DE7284652E7206AF5
:1005C000BDE8F09F6E32000010B5431C02E010F849
:1005D000011B71B18107FAD14FF0013202C88C1AA8
:1005E0008C4314EAC211F9D0C01A0A0603D0C01E07
:1005F00010BDC01A10BD0A0401D0801E10BD090232
:10060000FCD0401E10BD4FF0000200B513469446CA
:100610009646203922BFA0E80C50A0E80C50B1F15A
:100620002001BFF4F7AF090728BFA0E80C5048BF6E
:100630000CC05DF804EB890028BF40F8042B08BF0C
:10064000704748BF20F8022B11F0804F18BF00F808
:10065000012B70477047704770472DE9F0470D46F2
:1006600099469246044600F124080168880604D59C
:10067000E06921F01001216000E00120A84201DDC5
:10068000471B00E00027A1697A1902EB0900081A4C
:10069000A0612078C00602D42046FFF77DFE002628
:1006A00008E0D4E901211AF806009047206A401CAE
:1006B000761C20624E45F4DB2078C0060AD5204621
:1006C000FFF76AFE06E0D4E9012130209047206A56
:1006D000401C2062381EA7F10107F4DC07E0D4E9D2
:1006E000012118F805009047206A401C2062281E4E
:1006F000A5F10105F3DC2046FFF764FE2078000633
:1007000002D50220BDE8F0870120FBE701694A1C01
:1007100002610878704700B58FB0CDE90131002142
:10072000059105497944CDE9031011466846FFF764
:1007300087FE0FB000BD0000E5FFFFFF0A6802F86A
:10074000010B0A607047754600F02CF8AE460500B4
:100750006946534620F00700854618B020B5FFF7DC
:100760007DFDBDE820404FF000064FF000074FF040
:1007700000084FF0000B21F00701AC46ACE8C009BF
:10078000ACE8C009ACE8C009ACE8C0098D467047C8
:1007900010B50446AFF300802046BDE81040FFF7D7
:1007A00049BD00000048704720270020014918205B
:1007B000ABBEFEE7260002007047FEE7704772B648
:1007C000FEE70022AFF3008030B50E4B0546012056
:1007D0005C7A002C14D1587A1C54587A03EB8000B0
:1007E00045605D7A03F108002A54587A421C5A7217
:1007F000303008703A2048702F208870CC7000206C
:1008000030BD00001427002070B5044600F004F944
:100810000546601C02D004480078044400F0FCF84F
:10082000401BA042FAD370BD400000202DE9F84FD4
:10083000DFF8B8A10022012403254FF00F090AF1C7
:10084000040BAAF1040E00BF0B6804FA02F6334051
:10085000B34273D10F7907F00307012F01D0022FA4
:1008600016D187684FEA420805FA08FC27EA0C0708
:10087000D1F80CC00CFA08FC4CEA070CC0F808C010
:100880004768B7430E79C6F3001696403E4346606C
:100890000E79F643B6070DD0C768560005FA06FC78
:1008A00027EA0C07D1F808C00CFA06FC4CEA070C42
:1008B000C0F80CC00E7906F00306022E10D1D6083F
:1008C00000EB8608D8F8206057074FEAD76C09FA82
:1008D0000CF7BE430F6907FA0CF73743C8F82070CE
:1008E00006684FEA420C05FA0CF7BE430F7907F091
:1008F000030707FA0CF7374307604E6816F4403FCA
:100900006DD03B4E376847F480473760366822F039
:10091000030706F480460096364E07EB060CDCF81B
:10092000086897073F0F09FA07F826EA0806DFF874
:10093000C880404503D14FF000081EE04FE0DFF8CB
:10094000BC80404502D14FF0010816E0DFF8B080CE
:10095000404502D14FF002080FE0DFF8A880404583
:1009600002D14FF0030808E0DFF89C80404502D137
:100970004FF0040801E04FF0070808FA07F848EACA
:100980000608CCF80888DAF800605746D1F804C0A9
:100990009E435FEACC2C00D51E433E60DBF800602E
:1009A0005F46D1F804C09E435FEA8C2C00D51E43FD
:1009B0003E60DEF800607746D1F804C09E435FEAEF
:1009C0008C3C00D51E433E60084F083F3E68D1F87E
:1009D00004C09E435FEACC3C00D51E433E60521CDF
:1009E000102AFFF431AFBDE8F88F0000083C014049
:1009F0004438024000300140000002400004024040
:100A000000080240000C0240001002400AB181615F
:100A100070470904FBE70000014880687047000048
:100A200040000020024881680278114481607047CC
:100A3000400000200B4810B5016841F400710160CE
:100A4000016841F480610160016841F480710160D6
:100A5000032000F061F80F2000F006F800F024F801
:100A6000002010BD003C024070B50D4D04464FF40F
:100A70007A712878B1FBF0F00A490968B1FBF0F00F
:100A800000F088FC48B9102C07D200222146501EE5
:100A900000F022F800206C6070BD012070BD0000E5
:100AA000400000204C0000200A4808B5016841F4CD
:100AB00080410160006800F4804000900548001FFC
:100AC000016841F080510160006800F080500090A2
:100AD00008BD000044380240F0B40E4B1B680C46C1
:100AE000C3F30223C3F10705042D00D90425191D02
:100AF000072901D2002300E0DB1E012606FA05F1DA
:100B0000491E214099409E40761E16403143F0BC5C
:100B100001F01BB90CED00E0064900F0070208687F
:100B20004FF6FF03184040EA0220034A10430860D2
:100B3000704700000CED00E00000FA052DE9F047D9
:100B40000E46050065D0DFF81481D8F80000F7B232
:100B500000F00700B04207D288F80070D8F8000013
:100B600000F00700B04254D128683D4C810712D5EF
:100B7000400703D5206840F4E05020602878000743
:100B800003D5206840F4604020602068A96820F008
:100B9000F000084320602878C0072DD030496868ED
:100BA0000839012812D0022813D0032811D009686F
:100BB000890700292DDA216821F003010143216012
:100BC000FFF72AFF814641F2883A0EE0096889035F
:100BD000EFE709688901ECE7FFF71EFFA0EB0901C9
:100BE000514502D90320BDE8F0872068696800F00C
:100BF0000C00B0EB810FEFD1D8F80010404601F0A7
:100C00000701B14207D90770006800F00700B04241
:100C100001D00120E7E72878400705D52068E9687A
:100C200020F4E050084320602878000706D52068AB
:100C3000296920F4604040EAC100206000F038F8E3
:100C40002168084AC1F30311515CC8400649086095
:100C500006480068FFF708FF0020C4E7003C024098
:100C6000083802402A3200084C00002044000020CE
:100C70000448054900680968044AC1F38221515CAF
:100C8000C84070474C000020083802403A32000843
:100C90000448054900680968044AC1F34231515CBF
:100CA000C84070474C000020083802403A32000823
:100CB000154810B5006810F00C02144813D0144900
:100CC000042A0FD0082A0ED10F4C241F2268236853
:100CD00002F03F025B0207D52068C0F38810A0FB3A
:100CE000010106E0084610BD2168C1F38811A1FB8F
:100CF00000010023FFF7C4FA2168C1F30141491C38
:100D00004900B0FBF1F010BD083802400024F400A7
:100D100040787D012DE9F84F04006ED02078DFF88F
:100D20004C93C007A9F104054AD009F104000168F9
:100D3000C1F38101012908D00068C0F381000228B5
:100D40000AD1D9F80000400206D52868800337D5BB
:100D500060680028E1D033E06068B0F5803F10D0D3
:100D6000B0F5A02F286810D020F4803028602868C3
:100D700020F4802028606068A8B1FFF74DFE064689
:100D80000DE0286840F48030F4E740F480202860CB
:100D9000F7E700BFFFF740FE801B642873D8286880
:100DA0008003F7D50CE0FFF737FE064605E000BFED
:100DB000FFF732FE801B6428F0D828688003F7D440
:100DC0002078DFF8AC8280074FF0000A3ED5A748B4
:100DD000001D016811F00C0F08D00068C0F38100FD
:100DE00002280BD1D9F80000400207D428688007F8
:100DF00016D5E068012800D112E033E1E068B8B10F
:100E00000120C8F80000FFF707FE064605E000BF16
:100E1000FFF702FE801B0228C0D828688007F7D59C
:100E20002868216920F0F80040EAC10028600DE040
:100E3000C8F800A0FFF7F0FD064604E0FFF7ECFD60
:100E4000801B02281FD828688007F7D42078000765
:100E500022D5864F87486169703771B101210160E1
:100E6000FFF7DAFD064604E0FFF7D6FD801B0228F7
:100E700009D838688007F7D50EE0C0F800A0FFF762
:100E8000CBFD064605E082E0FFF7C6FD801B022889
:100E90007DD838688007F7D42078400768D5DFF818
:100EA000CCB100270BF13C0BDBF80000C0000BD4E9
:100EB000DBF8001041F08051CBF80010DBF80000A7
:100EC000012700F0805000906B4E3068C00510D4B0
:100ED000306840F480703060FFF79EFD009005E0C0
:100EE000FFF79AFD0099401A022850D83068C005D3
:100EF000F6D55E4EA0686C3601280FD00528306804
:100F000010D020F001003060306820F00400306024
:100F1000A068B8B1FFF780FD00900FE0306840F0A6
:100F20000100F4E740F004003060F7E7FFF774FDDC
:100F30000099411A41F28830814266D830688007B2
:100F4000F4D50EE0FFF768FD009007E0FFF764FDC1
:100F50000099411A41F28830814256D830688007A2
:100F6000F4D42FB1DBF8001021F08051CBF8001041
:100F7000A069C8B33D49091D0968C1F3810102296F
:100F80004AD00228504607D0C8F8600000E03CE094
:100F9000FFF742FD04463BE04746C8F86000FFF714
:100FA0003BFD064605E000BFFFF736FD801B02282B
:100FB0002BD828688001F7D4D4E907010843A16A37
:100FC0002E4A490802EB0141626A41EA8211084354
:100FD00094F82C1040EA0161C9F80010012038662D
:100FE000FFF71AFD044606E03EE000BFFFF714FDE0
:100FF000001B022809D828688001F7D534E000BF1B
:10100000FFF70AFD001B022802D90320BDE8F88F74
:1010100028688001F4D427E00128F7D0D9F800002F
:10102000E26900F4800191421CD1226A00F03F0184
:10103000914217D147F6C071626A0140B1EB821F3D
:1010400010D1A26A4FF0FF3300F4403103EB52029B
:10105000B1EB024F06D194F82C1000F07060B0EBA9
:10106000016F01D00120D1E70020CFE70438024012
:1010700000004742800E4742007000400000FFFF22
:1010800070B5040009D0606A002540B12561656132
:10109000A56294F8510040B10CE0012070BD606879
:1010A000B0F5827FF4D0E561F2E784F85050204635
:1010B00000F044F8022084F851002068016821F013
:1010C00040010160A088218900F4827001F404418C
:1010D0000843A18901F400610843217C01F0020169
:1010E0000843217D01F001010843218B01F40071C7
:1010F0000843217F01F03801084394F8201001F0E3
:1011000080010843218D01F40051084321680860E3
:10111000A069042101EA104094F8241001F01001A4
:101120000843216848602068C16921F40061C161F9
:101130006565012084F85100002070BD10B586B0AF
:10114000044614216846FFF75EFA13492068884276
:1011500020D112480021026842F4805202600068E7
:1011600000F4805005900D481438026842F00102E6
:101170000260006800F001000590E020009002206D
:10118000CDE901010320039005200490694604483D
:10119000FFF74CFB06B010BD003001404438024060
:1011A000000002402DE9FF4F81B01D4693460446E2
:1011B0004FF001090E9EFFF72FFC074694F85100EF
:1011C0006168012806D0B1F5827F3CD1A168C9BB16
:1011D000042838D10298002871D0BBF1000FFBD051
:1011E000002DF9D094F8500001282CD04FF0010ABE
:1011F00084F850A094F85100042802D0052084F807
:1012000051004FF00008C4F85480C4F838B0E587A6
:10121000A58702992163E586A586C4F84080C4F8B5
:10122000448020680168490603D4016841F0400108
:101230000160E068B0F5006F606808D0F0B3012D80
:1012400049D081E0FFE7022005B0BDE8F08F08B18A
:10125000012D39D1206B21680088C860206B801C6B
:101260002063E08E401EE0862EE0206881688907BA
:101270000FD5E18E69B1B9F1010F0AD1216B09884F
:10128000C160206B801C2063E08E401EE0864FF022
:10129000000920688168C9070CD0E18F51B1C0688E
:1012A000A16B0880A06B801CA063E08F401EE087CC
:1012B0004FF00109FFF7B0FBC01B01E00BE067E056
:1012C000B04201D3701C50D1E08E0028CDD1E08F08
:1012D0000028CAD13EE0206B216800780873206B9B
:1012E000401C2063E08E401EE0862DE0206881686F
:1012F00089070FD5E18E69B1B9F1010F0AD1216BD0
:1013000009780173206B401C2063E08E401EE0864C
:101310004FF0000920688168C9070CD0E18F51B1F6
:10132000C068A16B0870A06B401CA063E08F401EDA
:10133000E0874FF00109FFF76FFBC01BB04202D3FB
:10134000701C01D011E086B1E08E0028CED1E08F74
:101350000028CBD13A463146204600F05BFA50B126
:101360002020606584F8508012E084F851A084F851
:101370005080032068E7A06818B92068C1688068B9
:10138000009084F851A084F85080606D0028F1D05E
:10139000012059E710B5401EB0F1807F01D3012034
:1013A00010BD4FF0E02460610F21601700F0CDFC0C
:1013B0000020A06107202061002010BD70B504004E
:1013C00004D094F84100002510B106E0012070BD62
:1013D00084F84050204600F023F8242084F841008F
:1013E0002068C16821F40051C160204600F054FB20
:1013F0002068016921F4904101612068416921F070
:101400002A0141612068C16841F40051C1606564EE
:10141000202084F8410084F842006563002070BDFC
:1014200010B586B0044614216846FFF7ECF813495E
:101430002068884220D112480021026842F0200230
:101440000260006800F0200005900D481438026822
:1014500042F004020260006800F004000590C02021
:1014600000900220CDE901010320039008200490A0
:1014700069460448FFF7DAF906B010BD00140140D0
:1014800044380240000802402DE9F843044690F831
:101490004100984616460D46202802D00220BDE89D
:1014A000F88385B17EB100206064212084F841007A
:1014B000FFF7B2FAA6848146E684A0682027B0F53B
:1014C000805F02D003E00120E9E7206910B12E46D9
:1014D00000250EE000260CE08021204600F062FB93
:1014E000A8B9C6B116F8010B21684860E08C401E0F
:1014F000E084E08C4B464FF00002CDF800800028DD
:10150000EAD14FF04001204600F04CFB40B184F896
:1015100041700320C3E735F8020BC0F30800E3E78E
:1015200084F841700020BAE7FEE7000010B50449D6
:101530000448FFF746F90249491E087010BD000033
:10154000010000202C00002010B586B01421684650
:10155000FFF759F812480021026842F001020260C8
:10156000026802F001020592026842F00402026081
:1015700000680C4C00F00400059010200090012041
:10158000CDE901010220039069462046FFF74EF99C
:10159000012210212046FFF739FA06B010BD0000E5
:1015A00030380240000002400E4810B50C4901607E
:1015B0004FF48271416000218160C1604FF400727C
:1015C0000161C0E90512C1610162416281620A21C3
:1015D000C162FFF755FD002801D072B6FEE710BDCD
:1015E0000030014058000020FEE7FEE77047000091
:1015F0002DE9F04100222949294800F0B3FF18B134
:10160000BDE8F041FFF7DBB8264827A100F50075DB
:1016100028604FF40070686005F5907000F0CEFF10
:10162000224C0028607036D14FF48057204901F5D4
:10163000907001F004F8607040BBA87F30B3286858
:101640002061FEF7C1FF30B12069FEF7BDFF82B215
:101650003B46216907E016481E300646FEF7B4FFF8
:1016600082B23B4631461348FFF70EFF287CC00686
:1016700005D53B46072210A10E48FFF705FF3B4664
:1016800002220FA10B48FFF7FFFECFE7BDE8F041B4
:101690000C4800F055BFBDE8F081000001000020BB
:1016A00034010020A02100202F00000008000020AD
:1016B000A0230020B000002020205B4449525D00A0
:1016C0000D0A0000C024002070B50546512000F02E
:1016D00059F878B9FF2000F045F900244FF6FF765D
:1016E00000F0CEF8641CA4B2FE2801D0B442F7D3B7
:1016F000B44201D3052070BD00244FF4007600BF32
:1017000000F0BEF82855641CA4B2B442F8D3FF2000
:1017100000F028F9FF2000F025F9002070BD70B519
:101720000546582000F02EF838BBFF2000F01AF9CB
:10173000FE2000F017F900244FF40076285D00F039
:1017400011F9641CA4B2B442F8D3FF2000F00AF9E6
:10175000FF2000F007F900F093F8052181430CD138
:1017600000244FF6FF7500F08BF8641CA4B2FF282C
:1017700001D0AC42F7D3AC4201D3062070BD0020AB
:1017800070BD000070B504460D46000607D504F094
:101790007F0400217720FFF7F5FF012836D81C4E83
:1017A000012208213046FFF731F9FF2000F0DAF876
:1017B000002208213046FFF729F9FF2000F0D2F877
:1017C000204600F0CFF8280E00F0CCF8C5F3074013
:1017D00000F0C8F8C5F3072000F0C4F8E8B200F044
:1017E000C1F80120402C02D0482C02D002E0952004
:1017F00000E0872000F0B6F85FF00A0400F040F83F
:10180000010603D5641E14F0FF04F7D170BD00007B
:1018100000000240F8B515460E460B4600920446FD
:101820000122022100F032F8A0B9134813490068E0
:10183000B0FBF1F04FF47A71484300906068B0F566
:10184000827F0DD13346002280212046009500F092
:101850001DF870B1606D40F0200060650320F8BD98
:10186000009830B1401E009020688068C043000698
:10187000F6D50020F8BD00004C00002000366E01B7
:10188000FF2000F06FB8FF2000F06CB82DE9F8439E
:101890001E46914688460446089DFFF7BDF8401B4A
:1018A000351AFFF7B9F8074625480068C0F3CB3072
:1018B000684338E0701C37D0FFF7AEF8C01BA84271
:1018C00003D215B1009860B32CE02068416821F084
:1018D000E00141606068B0F5827F0BD1A068B0F58F
:1018E000004F02D0B0F5806F04D12068016821F06C
:1018F00040010160A06AB0F5005F09D1206801686D
:1019000021F4005101602068016841F40051016038
:10191000012084F85100002084F850000320BDE825
:10192000F8830025401E00902068816838EA010095
:1019300004D000214945BDD10020F0E70121F9E79D
:101940004C00002070B500244FF6FF75FFF798FF9C
:10195000641CA4B2FF2801D0AC42F7D3AC4200D340
:10196000012070BD01B582B000208DF804004FF455
:1019700080500090012301AA02A90648FFF712FC3B
:1019800028B100224FF400510348FFF73FF89DF8BB
:1019900004000EBD58000020000802407047FFF709
:1019A00041B8000010B592B030216846FEF72BFE1A
:1019B00014210CA8FEF727FE1D480021026842F002
:1019C00080520260006800F080501190194802684F
:1019D00042F4404202600068022400F4404011904A
:1019E0000120039010200490009406940A20CDE971
:1019F00007105020CDE9090404200B906846FFF73A
:101A000089F908B172B6FEE70F20CDE90C048020F9
:101A10000E9040010F904FF4A050109001210CA89F
:101A2000FFF78CF8002801D072B6FEE712B010BDA7
:101A300040380240007000400248016841F47001E3
:101A40000160704788ED00E001680C3151E8002F1B
:101A500022F4907241E80023002BF5D10168143183
:101A600051E8002F22F0010241E80023002BF5D1BC
:101A7000016B012909D101680C3151E8002F22F0D6
:101A8000100241E80023002BF5D1202180F84210FC
:101A9000002101637047000070B5044600680169C9
:101AA000E26821F44051114301612169A068E269B3
:101AB00008436169114308432168CA6849F20C630D
:101AC0009A430243CA6020684169A26921F44071C7
:101AD0001143416131492068884202D0304988422F
:101AE00002D1FFF7D5F801E0FFF7C2F8E269002361
:101AF000192164253226B2F5004F626828D0A0FB78
:101B00000101930F9200FEF7BBFB0146B0FBF5F01D
:101B10006FF01802504301EB800006EB0010B0FBA1
:101B2000F5F000F0F002B1FBF5F002EB0012B1FBB2
:101B3000F5F06FF01803584301EB800006EB00103E
:101B4000B0FBF5F000F00F0021681044886070BD14
:101B5000A0FB010192185B41FEF792FB0146B0FB2E
:101B6000F5F00201B1FBF5F06FF01803584301EBFB
:101B7000800006EBC000B0FBF5F000F0F80002EBCF
:101B80004002B1FBF5F0584301EB800006EBC000CA
:101B9000B0FBF5F000F00700D6E7000000100140B0
:101BA000001401402DE9F843984617460D460446B7
:101BB000089E24E0701C22D0FEF72EFFA0EB080048
:101BC000B0421AD8CEB12068C168490717D5802D18
:101BD00015D0402D13D00168C94309070FD40168FF
:101BE0000025406800902046FFF72EFF0820606423
:101BF00084F840500120BDE8F8830320FBE720680B
:101C0000006835EA000004D00020B842D2D000209D
:101C1000F1E70120F9E7000010B54FF480531122DD
:101C200008A10D48FFF730FC0220FEF7EDFD01F0A2
:101C30009BF90A4918B9087820F001000870087863
:101C400010BD0000555345525F696E697469616C3F
:101C5000697A650D0A000000B0000020280000200D
:101C600010B508B1042010BD0C480078C00701D0A1
:101C7000032010BD012439B102290BD05FF0040408
:101C8000FFF701FE204610BDFFF75CFEFF28F7D1ED
:101C90000024F5E74FF400701080F9E728000020D9
:101CA00010B50C4630B92BB10D480078C00703D0F1
:101CB000032010BD042010BD0A480078400700D45E
:101CC0005202012B03D0FFF7DEFD012010BD1146AB
:101CD0002046FFF7F9FCFFF7D6FD002010BD0000FD
:101CE000280000200800002008B1012070470148AA
:101CF000007870472800002010B50C4630B92BB191
:101D00000F480178C90703D0032010BD042010BD7F
:101D10000078400701D5022010BD0A48007840072E
:101D200000D45202012B03D0FFF7ADFD012010BDFE
:101D300011462046FFF7F3FCFFF7A5FD002010BD7C
:101D40002800002008000020FEE70907090E0028EF
:101D500004DB00F1E02080F80014704700F00F0071
:101D600000F1E02080F8141D704730380A2801D2B5
:101D7000012070470020704710B504460020E07035
:101D8000401E6063204601F00AF808B1042010BD2F
:101D900004F2362000F0BAFFA0F52A41553901D0EF
:101DA000032010BD94F83800E92805D0EB2814D1A1
:101DB00094F83A00902810D104F16E0000F09BFFD7
:101DC0000749B1EB002F06D004F18A0000F093FF21
:101DD0000449884201D1002010BD022010BD00003E
:101DE000004641544641543300E0401C02780AB199
:101DF0008A42FAD1D0B2704730B50021054B0C466B
:101E000003EB01121568854200D11460491C0229B8
:101E1000F6D330BDF4240020C269891E921E8A4286
:101E200001D800207047026B408901FB00207047F9
:101E30002DE9F05F82460C4601F11A0000F066FFC2
:101E400078BB2078012700F03F00401E00EB8001A6
:101E5000DFF8589001EBC00500264FF6FF7B00BF6E
:101E600019F80600204400F051FF80466FB1FF2DA5
:101E700017D200F021FC07463AF815006D1C00F05F
:101E80001BFC87420DD1474601E0D84509D1761C9D
:101E90000D2EE5D32078400606D52FB13AF815006F
:101EA00010B10020BDE8F09F0120FBE7C23200081E
:101EB0002DE9F04105680F00804606D000F0C1FD15
:101EC000022809D20120BDE8F0816E6916B1E869E7
:101ED000B04207D8012605E0411CF4D0E9698142EF
:101EE000F1D83E463446E869641CA04202D8022478
:101EF000022E0AD32146404600F0A3FD38B1012846
:101F0000E1D0411CDFD0B442EDD10020DBE74FF03F
:101F1000FF3632462146284600F094FF30B957B1CB
:101F200022463946284600F08DFF20B101280FD007
:101F300001242046C7E76C61D5E90601891E884265
:101F400001D8401EA861287940F001002871F0E70F
:101F50003446EEE72DE9F84F824600680E6800240B
:101F6000076988462546705D6D1C20281AD32F28E6
:101F700013D05C2811D0FF2C39D2012100F080FB56
:101F80005FEA000933D0B9F1800F12D201466DA08B
:101F9000FFF72AFF58BB0CE06D1C715D2F29FBD0A9
:101FA0005C29F9D07219C8F80020202805D2042530
:101FB0000FE027F81490641CD5E7002509E000BF66
:101FC00007EB440030F8020C202801D02E2802D163
:101FD000641E002CF4D1002027F814003CB10B2221
:101FE00020210AF1240000F0D3FE002603E00620A1
:101FF000BDE8F88F761C37F816002028FAD02E2876
:10200000F8D01EB145F0030500E0641E2CB107EBCB
:10201000440030F8020C2E28F7D14FF000094FF0A1
:10202000080BCDF8009000BF37F8160006F1010646
:102030005FEA000824D0B8F1200F04D0B8F12E0FC9
:1020400004D1A64202D045F00305EDE700985845BB
:1020500001D2A64219D1BBF10B0F0FD0A64201D07D
:1020600045F003050CD84FF0080000904FEA896056
:1020700026464FF00B0B4FEA1069D5E745F00305F4
:102080009AF82400E52838D03AE04046B8F1800FAD
:1020900010D3002100F0F4FA5FEA000805D02C49C3
:1020A00001EB080010F8800C804645F00205B8F1FD
:1020B000000F04D0014627A0FFF796FE20B14FF095
:1020C0005F0845F003050FE0A8F14100192802D888
:1020D00049F0020908E0A8F16100192804D841304C
:1020E00049F001091FFA80F8009A0AEB020181F811
:1020F00024800098401C009096E705218AF824105F
:10210000BBF1080F03D14FEA89604FEA1069C9F3A8
:102110008100032803D06FEA0901890701D145F046
:102120000205A90709D409F00301012901D145F0ED
:102130001005012801D145F008058AF82F5000202C
:1021400056E70000222A3A3C3E3F7C7F0000000018
:10215000423200082B2C3B3D5B5D0000401E0228F4
:1021600012D20A4901EB00118889B0F5807F05D0B1
:1021700008B1401E80B2888110B103E00020FAE768
:10218000002008600020704702207047F4240020DF
:102190002DE9F04704460021D0F8009000F03CF90A
:1021A00000285BD1FF25471EA84627634846E16902
:1021B00000F0F5FD060050D1216A087850B1CA7AC6
:1021C000E52802F03F02A2713FD0130704D50F2A81
:1021D0003BD105E0042640E00F2A01D0E5B120E024
:1021E00094F82F20520632D4420606D591F80D807D
:1021F00000F0BF00626905462263A84209D14A7B0C
:10220000424506D1D9F81000FFF712FE08B16D1E45
:1022100000E0FF25EDB21AE0084600F0B1FF4045AE
:102220001BD094F82F00C0070FD1D4F8201004F170
:1022300024000B2211F8013B10F8015B5B1B521EBE
:1022400002D0002BF6D000E03BB1FF252763002130
:10225000204600F005F80600A8D03046BDE8F0871B
:102260002DE9F047054647690468C069894620376B
:1022700010B1B7F5001F02D30420BDE8F087A18993
:10228000B7FBF1F201FB127100295FD1401CE8613C
:10229000A9694FF0000819B3A0896289B7FBF0F073
:1022A000521E104252D1284600F0CBFB06460128B0
:1022B0001FD9701C36D0E069B04241D8B9F1000F87
:1022C00012D02846A969FFF7F3FD06000FD0012EB2
:1022D0000FD0701C26D0204600F05FFF10BB0AE034
:1022E0002089B0EB571F31D8C5F81C80C4E7072000
:1022F000C3E70220C1E7A289002104F1380000F001
:1023000047FD4FF0000831462046FFF785FD4FF0AE
:10231000010960630DE000BF84F80390204600F0DF
:102320003CFF08B10120A8E7606B08F10108401CE0
:10233000606361894145EFD8616BA1EB0800606380
:1023400031462046AE61FFF767FDE8616F61A08905
:10235000B7FBF0F100FB11702044383028620020F8
:102360008BE72DE9F0470426FF24894605462746DA
:10237000D0F8008047E0404600F011FD060046D14D
:10238000296A087880B1CA7AE52802F03F02AA716A
:1023900008D02E2806D022F02003082B06D0B44601
:1023A000CC4506D0FF241EE0042630E04FF0010C9F
:1023B000F6E70F2A01D014BB1CE0420605D54F7B7F
:1023C00000F0BF006A6904462A63A04209D1487B35
:1023D000B84206D1D8F8100000F0FAFC08B1641E2B
:1023E00000E0FF24E4B200212846FFF739FF060091
:1023F00009D00CE0084600F0C3FEB84209D04FF007
:10240000FF30286305E0E9690029B4D10EB100204E
:10241000E8613046BDE8F0872DE9F04104680F46D9
:102420000646B1F5001F3CD2F8063AD17761B5688F
:1024300025B92078032806D3E56A25B16089A189EA
:1024400000FB01F812E02089B0EB571F29D9E06AA0
:1024500012E0304600F0F5FA0546401C1FD0022D70
:102460001FD3E069A8421CD9A7EB080747452946B6
:10247000EFD22046FFF7D0FCC6E9065088B1A1890B
:10248000B7FBF1F10844F061A089B7FBF0F100FB64
:1024900011702044383030620020BDE8F081012006
:1024A000FBE70220F9E7000070B5094C0546002063
:1024B000615D00290AD104EB850160194968007A41
:1024C00009688847002801D10121615570BD0000CD
:1024D0001427002030B4054C231804EB80001B7A2D
:1024E000406804691846A44630BC604714270020A1
:1024F00030B4054D2C1805EB8000247A40688568BF
:102500002046AC4630BC604714270020044A11180E
:1025100002EB8000097A40684268084610470000D4
:102520001427002030B4054D2C1805EB8000247AC8
:102530004068C5682046AC4630BC60471427002080
:1025400038B50446694600F051FE002808D12169DB
:1025500021B10846FFF702FE002801D100212160C9
:1025600038BD00002DE9F74181B0904602980090F7
:10257000684600F04EFB040003D50B2004B0BDE814
:10258000F0810D4E002756F824501DB12846FFF764
:1025900033FC2F700198002800D0077046F8240003
:1025A00002D0B8F1010F01D00020E7E7002201A915
:1025B00002A800F0C1F8E1E75400002073B582B032
:1025C000050009D00022694603A800F0B5F8040010
:1025D0004FF0000603D02FE0092004B070BD009931
:1025E00029602846039900F0EFF9040014D195F80A
:1025F0002F00000607D4A879C0061CD5296A0098C8
:1026000000F066FBA8600098C188A98028460021D8
:10261000FFF702FF040002D0042C0CD00CE0A868E5
:1026200038B10021284600F013FB286128B9122494
:1026300002E02E6101E005242E602046CDE738B58A
:102640000C460546694600F0D1FD002813D101462D
:1026500028468CB1FFF785FE042801D000280AD156
:102660002146284600F061FA00212846FFF7F8FDD0
:10267000042800D1002038BDFFF7CEFE38BD000091
:10268000802804D30B4A51B1FF2801D9002070479C
:1026900002EB4000A0F58050B0F8000F704732F810
:1026A0001130834203D0491C89B28029F7D380318D
:1026B000C8B27047EC32000830B5B0F5805F01D287
:1026C0001B4900E01B4931F8022B002A15D090422B
:1026D00013D331F8024B230AE5B252FA84F4844250
:1026E00021D9092B09D2DFE803F005090E111315D2
:1026F00017191B00801A31F8100030BD811A01F043
:102700000101401A00E0103880B230BD2038FBE7EC
:102710003038F9E71A38F7E70830F5E75038F3E7CB
:10272000A0F5E350F0E7002BCDD101EB4501CAE75E
:10273000EC330008DE3500082DE9FF410027904604
:102740000E460F6000F065FA050003D50B2004B0BB
:10275000BDE8F081984850F825409CB1346020785D
:1027600008F0FE0620B16078FFF7D0FEC1070BD05D
:102770002770E8B2B8466070FFF796FEC10708D030
:102780000320E4E70C20E2E70EB1400704D4002068
:10279000DDE71EB1400701D50A20D8E7607804F1D3
:1027A0000C020221FFF796FEF0BBA089A0F5007194
:1027B000B1F5606F3FD8411E08423CD1002631463A
:1027C0002046FFF7D9FA022822D100254FEA0D074B
:1027D00004EB051090F8FA1100F5FB7019B1083000
:1027E00000F089FA00E0002047F825006D1C042D58
:1027F000EED3002557F8256036B131462046FFF765
:10280000BBFA022801D203E003206D1C042DF1D392
:10281000042810D0022878D204F1430000F076FAA0
:10282000A189884271D100E005E004F14E0000F07A
:102830006DFA10B105E0012089E704F15C0000F0B9
:102840005AFA206294F84850A570012D01D0022D4B
:102850005BD1454394F845006081E8B3411E0842CE
:1028600053D104F1490000F051FA2081A1894909AE
:10287000B0FBF1F201FB120070BB04F14B0000F061
:1028800045FA070004D104F1580000F034FA074675
:1028900004F1460000F03AFA010036D0A0892389FD
:1028A0004009B3FBF0F04A19024497422DD3B81AFD
:1028B0006789B0FBF7F078B103274FF6F57C6045E8
:1028C00000D8022740F6F57C604500D80127324445
:1028D000801C3144226300E017E0E061C4E9096133
:1028E000032F14D08BB12944E162022F20D000F0D5
:1028F000010100EB400001EB5000A189401E08449B
:10290000B0FBF1F0216A884214D90D201FE704F1D1
:10291000620000F0FBF90028F7D120890028F4D1EB
:1029200004F1640000F0E7F9E062E0698000E4E7A8
:102930004000E2E74FF0FF30A0616061802020712D
:10294000032F2CD104F1680000F0E0F9012826D112
:10295000711C204600F023FA08BB84F8048004F2BE
:10296000362000F0D3F9A0F52A41553917D104F1EA
:10297000380000F0C0F91149884210D104F5077001
:1029800000F0B9F90E49884209D104F5087000F049
:10299000B2F9A06104F5097000F0ADF96061064874
:1029A0002770001F0188491C0180E18005482061D3
:1029B0002046FFF721FAEAE6540000205252614116
:1029C000727241611425002073B5044605680198B0
:1029D00001E0401C019001782F29FAD05C29F8D041
:1029E0000021A16001980078202806D2802084F878
:1029F0002F002046FFF710FD7CBD01A92046FFF700
:102A0000A9FA0028F8D12046FFF7C2FB94F82F104E
:102A100028B10428F0D14907EED405207CBD490730
:102A2000FCD4A079C006F8D5A9896069B0FBF1F2A1
:102A300001FB120041192846383100F049F9A06025
:102A4000DBE72DE9F04104680D4602290BD3E0696C
:102A5000A84208D920784FF0FF36012807D0022875
:102A600034D0032849D001263046BDE8F081A08942
:102A700005EB5507B7FBF0F0A16A0144204600F0D2
:102A80008EF90028F0D1A089B7FBF0F100FB11719D
:102A90007F1CB7FBF0F0214491F83880A16A014413
:102AA000204600F07CF90028DED1A089B7FBF0F1C8
:102AB00000FB1170204490F8381048EA0120E90723
:102AC00001D00609D0E7C0F30B06CDE7A089A16AC3
:102AD0004008B5FBF0F00144204600F060F9002802
:102AE000C2D1A1896800B0FBF1F201FB12002044C1
:102AF000383000F00BF90646B6E7A089A16A8008D5
:102B0000B5FBF0F00144204600F049F90028ABD1B4
:102B1000A189A800B0FBF1F201FB1200204438307B
:102B200000F0E9F820F070469EE72DE9F0474FF0FD
:102B30000009D0F80080064681F81E90C0690C4656
:102B4000002864D0306B401C17D000252F460AE0C7
:102B50000021FFF795FD08B1FF2D01D3002509E005
:102B600061196D1C8877D8F8100030F817007F1CA9
:102B70000028EDD1611981F81E900021A37F0A463B
:102B80002E25306A405C491C202824D0052800D11D
:102B9000E520092905D10BB9A718BD77A718521C44
:102BA0007D74A7187874ABB9A0F1410CBCF1190F72
:102BB0000FD8D6F820C009299CF80CC002D34FF0DA
:102BC000100801E04FF008081CEA080F01D020307F
:102BD000C0B2B877521C0B29D3D333B9A11881F8EE
:102BE0001E90306A007B00B90022A11881F8119074
:102BF000306AC07A2074306A1C3000F07CF8A06023
:102C0000306A163000F077F8E081000CA081BDE852
:102C1000F08710B504464FF0FF302268002A13D029
:102C2000114600E0491C0B78202B0ED33A2BF9D12A
:102C300012F8013B303B0A2B06D28A4204D1002B0A
:102C400002D1491C1846216010BD002010BD0000B3
:102C5000F0B502461D4BD2F80050002003EB0014E3
:102C60002668AE4207D166689768BE4203D1A46861
:102C70005669B44202D0401C0228EFD3022814D176
:102C8000002002E0401C022804D203EB0014246858
:102C9000002CF7D102280ED003EB001425609568B4
:102CA00065605269A2600022A281002903EB001135
:102CB000898902D019B10020F0BD491C01E04FF410
:102CC000807103EB0012401C9181F0BDF4240020C0
:102CD00070B506460D4601F11A0000F017F80446DB
:102CE0003078032805D105F1140000F00FF844EA0C
:102CF0000044204670BDC178827842EA01214278C2
:102D0000007842EA012140EA0120704741780078CA
:102D100040EA012070470000FDF78CFEFEF742FEFE
:102D2000FEF712FCFEF740FC124811490C2201602C
:102D30004FF41651416000218160C160C0E9041266
:102D40008161C161FEF73AFB08B172B6FEE7FEF79A
:102D5000EDFB4FF48053122207A10648FEF794FBC7
:102D60000A484078FFF7A0FBFEF742FCFEE70000B0
:102D700000140140B0000020554152543620496EE5
:102D8000697469616C697A65640D0A003401002018
:102D90005FFA81F100F8011B521EFBD1704770B53C
:102DA0000446406B0D460026A8420FD0204600F096
:102DB000F4F906000AD1607801232A4604F13801AB
:102DC000FFF796FB08B1751E01266563304670BD9E
:102DD0002DE9F04781460E4601F11A00FFF796FFF4
:102DE00028BB3078012520F04000401E00EB800118
:102DF000DFF84C8001EBC00400274FF6FF7A00BFDC
:102E000018F807003044FFF781FF35B1FF2C0ED2D0
:102E100029F814000546641C01E0504507D17F1CC9
:102E20000D2FEDD33078400607D5FF2C02D30020BC
:102E3000BDE8F087002129F814100120F8E7000010
:102E4000C23200082DE9F047022617460D46044617
:102E500002297DD3E069A8427AD920784FF0010990
:102E6000012804D0022840D003287AD154E0A18957
:102E700005EB5508B8FBF1F0A16A01442046FFF7C5
:102E80008EFF06006DD1A189B8FBF1F201FB128023
:102E90002044383008F10108E90704D00178FAB27B
:102EA00062F31F1100E03946017084F80390A18994
:102EB000B8FBF1F0A16A01442046FFF770FF06005D
:102EC0004FD1A189B8FBF1F201FB128020443830C8
:102ED000E90702D0C7F3071105E00178C7F3032221
:102EE00001F0F0011143017039E0A089A16A4008A6
:102EF000B5FBF0F001442046FFF751FF060030D14A
:102F0000A1896800B0FBF1F201FB12002044B9B2C4
:102F1000383000F031F922E0A089A16A8008B5FBC1
:102F2000F0F001442046FFF73AFF060019D1A089CE
:102F3000AD00B5FBF0F100FB115020443830FFF735
:102F4000DAFE67F31B000146A089B5FBF0F200E052
:102F500007E000FB12502044383000F005F984F8F7
:102F600003903046BDE8F0872DE9FE43012251036E
:102F70006948FDF74BFD694D4FF0000885F800806A
:102F8000674E3820F769F0613046FEF779F8DFF8D0
:102F90009491012208214846FDF738FD0024FF20C6
:102FA000FEF7E0FC641CE4B20A2CF8D35C48F7613D
:102FB000FEF766F8002208214846FDF727FD0021AC
:102FC0004020FEF7DFFB012802D00120BDE8FE8390
:102FD000FF20FEF7C7FC4FF4D5714820FEF7D2FB67
:102FE0004FF48057012809D00021E920FEF7CAFBE1
:102FF000012868D802202870E92667E0002402AE84
:10300000FEF73EFC3055641CE4B2042CF8D39DF866
:103010000B109DF80A00CDE900019DF809309DF8DC
:10302000082041A14948FDF7A3F94848FDF7CCFA2B
:1030300082B23B4645494648FEF726FA9DF80A000B
:10304000012858D19DF80B00AA2854D142F6E0641B
:103050004FF0804803E0641E24B2002C4BD0414660
:10306000E920FEF78FFB0028F5D15CB300217A2020
:10307000FEF788FB30BB0024FEF702FC3055641CD1
:10308000E4B2042CF8D39DF80B109DF80A00CDE9AA
:1030900000019DF809309DF8082023A12B48FDF779
:1030A00067F92A48FDF790FA82B23B46274928483B
:1030B000FEF7EAF99DF80800400601D50C2000E073
:1030C0000420287017E001202870412646F2A81439
:1030D00002E0641E24B264B100213046FEF752FBC8
:1030E0000028F6D12CB14FF400715020FEF74AFBB6
:1030F00008B14046E5E72A7816A11448FDF738F9EB
:103100001248FDF761FA82B23B4610491048FEF7BB
:10311000BBF900205AE70000000802400800002028
:1031200058000020000002404F43523A20307825DA
:1031300030325820307825303258203078253032DF
:1031400058203078253032580D0A0000F800002051
:10315000B0000020547970652053443A203078251F
:103160003032580D0A0000000170090A4170090A46
:103170008170090AC17070470170090A4170704777
:10318000014600200B22430803EBC01011F8013B5D
:10319000521E1844C0B2F6D170472DE9F0410446E2
:1031A000C0780027F8B1656B04F13801607801231D
:1031B0002A468846FFF7B6F908B1012713E0002038
:1031C000E070A06A216A281A88420CD2A67808E02A
:1031D000206A0123054460782A464146FFF7A2F998
:1031E000761E022EF4D23846BDE8F08170B50E4648
:1031F00004004FF009050CD0206850B1017841B1AE
:10320000A188C288914204D14078FFF77FF9C007B6
:1032100003D000203060284670BD00252068F9E703
:103220004FF04070E1EE100A70470000000000000F
:103230000000010203040607080900000000010263
:1032400003044355454141414143454545494949A9
:1032500041414592924F4F4F5555594F554F9C4FB5
:103260009E9F41494F55A5A5A6A7A8A9AAABACAD5D
:10327000AEAFB0B1B2B3B4414141B8B9BABBBCBD55
:10328000BEBFC0C1C2C3C4C54141C8C9CACBCCCDF1
:10329000CECFD1D145454549494949D9DADBDCDDB5
:1032A00049DF4FE14F4F4F4FE6E8E8555555595923
:1032B000EEEFF0F1F2F3F4F5F6F7F8F9FAFBFCFDB6
:1032C000FEFF01030507090E10121416181C1E003C
:1032D0000100040010004000000100020000010095
:1032E000020004000800100020000000C700FC00DD
:1032F000E900E200E400E000E500E700EA00EB009E
:10330000E800EF00EE00EC00C400C500C900E600D4
:10331000C600F400F600F200FB00F900FF00D60042
:10332000DC00F800A300D800D7009201E100ED0016
:10333000F300FA00F100D100AA00BA00BF00AE000D
:10334000AC00BD00BC00A100AB00BB0091259225E4
:10335000932502252425C100C200C000A9006325D1
:10336000512557255D25A200A500102514253425DB
:103370002C251C2500253C25E300C3005A25542597
:1033800069256625602550256C25A400F000D00035
:10339000CA00CB00C8003101CD00CE00CF001825F7
:1033A0000C2588258425A600CC008025D300DF00CD
:1033B000D400D200F500D500B500FE00DE00DA0032
:1033C000DB00D900FD00DD00AF00B400AD00B100AE
:1033D0001720BE00B600A700F700B800B000A80094
:1033E000B700B900B300B200A025A00061001A0325
:1033F000E0001703F8000703FF0001007801000157
:10340000300132010601390110014A012E01790112
:10341000060180014D004302810182018201840185
:10342000840186018701870189018A018B018B0153
:103430008D018E018F019001910191019301940101
:10344000F60196019701980198013D029B019C01AC
:103450009D0120029F01A001A001A201A201A401DF
:10346000A401A601A701A701A901AA01AB01AC0112
:10347000AC01AE01AF01AF01B101B201B301B301C3
:10348000B501B501B701B801B801BA01BB01BC0172
:10349000BC01BE01F701C001C101C201C301C401E9
:1034A000C501C401C701C801C701CA01CB01CA01D6
:1034B000CD011001DD0101008E01DE011201F301D9
:1034C0000300F101F401F401F801280122021201C4
:1034D0003A020900652C3B023B023D02662C3F028A
:1034E00040024102410246020A01530240008101AA
:1034F0008601550289018A0158028F015A02900102
:103500005C025D025E025F0293016102620294014D
:103510006402650266026702970196016A02622CE4
:103520006C026D026E029C01700271029D017302B9
:1035300074029F0176027702780279027A027B0296
:103540007C02642C7E027F02A60181028202A90114
:103550008402850286028702AE014402B101B201F3
:1035600045028D028E028F0290029102B7017B0309
:103570000300FD03FE03FF03AC030400860388037E
:1035800089038A03B1031103C2030200A303A30347
:10359000C4030803CC0303008C038E038F03D803FA
:1035A0001801F2030A00F903F303F403F503F60329
:1035B000F703F703F903FA03FA0330042003500476
:1035C0001007600422018A043601C1040E01CF04F1
:1035D0000100C004D00444016105260400007D1DE3
:1035E0000100632C001E9601A01E5A01001F080650
:1035F000101F0606201F0806301F0806401F06067B
:10360000511F0700591F521F5B1F541F5D1F561F7C
:103610005F1F601F0806701F0E00BA1FBB1FC81F68
:10362000C91FCA1FCB1FDA1FDB1FF81FF91FEA1FB4
:10363000EB1FFA1FFB1F801F0806901F0806A01F24
:103640000806B01F0400B81FB91FB21FBC1FCC1F53
:103650000100C31FD01F0206E01F0206E51F010084
:10366000EC1FF21F0100FC1F4E21010032217021CE
:103670001002842101008321D0241A05302C2F044C
:10368000602C0201672C0601752C0201802C64015C
:10369000002D260841FF1A03000030313233343543
:1036A000363738394142434445464030580030317E
:1036B0003233343536373839616263646566403099
:1036C0007800040000080000000000000002000173
:1036D00000001000F4360008000000205800000030
:1036E000D40100084C37000858000020282D0000A5
:1036F000F0010008000000000000000000000000D1
:1037000000000000000000000000000000000000B9
:1037100000000000000000000000000001000000A8
:10372000191C0008E91C0008A11C0008F91C00086D
:10373000611C0008010000001000000000000000F3
:0C3740000024F400000000000000000065
:040000050800019955
:00000001FF
